:100000000C945C000C942D050C9406050C9479005E
:100010000C9479000C9479000C9479000C9479007C
:100020000C9479000C9479000C9479000C9479006C
:100030000C9479000C9479000C9479000C9479005C
:100040000C94BC040C9479000C9479000C94790005
:100050000C9479000C9479000C9479000C9479003C
:100060000C9479000C947900000000002400270013
:100070002A0000000000250028002B0004040404CE
:100080000404040402020202020203030303030342
:10009000010204081020408001020408102001021F
:1000A00004081020000000080002010000030407FB
:1000B000000000000000000011241FBECFEFD8E0B8
:1000C000DEBFCDBF11E0A0E0B1E0ECE9FDE002C091
:1000D00005900D92AA3DB107D9F721E0AAEDB1E054
:1000E00001C01D92A63EB207E1F70E9454050C9490
:1000F000CC060C94000090E0FC01EC55FF4F2491DD
:10010000FC01E057FF4F3491FC01E458FF4FE491AC
:10011000EE2309F43CC0222339F1233091F038F466
:100120002130A9F0223001F584B58F7D12C027302F
:1001300091F02830A1F02430B9F4809180008F7DB7
:1001400003C0809180008F77809380000DC084B5BC
:100150008F7784BD09C08091B0008F7703C08091F4
:10016000B0008F7D8093B000F0E0EE0FFF1FEE58DF
:10017000FF4FA591B4919FB7F894611104C08C9181
:100180003095382302C0EC913E2B3C939FBF0895DD
:10019000CF93DF9390E0FC01E057FF4F2491FC01E7
:1001A000E458FF4F8491882361F190E0880F991FF4
:1001B000FC01E859FF4FC591D491FC01EE58FF4F67
:1001C000A591B491611109C09FB7F89488812095D9
:1001D00082238883EC912E230BC0623061F49FB799
:1001E000F8948881322F309583238883EC912E2BCD
:1001F0002C939FBF06C08FB7F894E8812E2B2883DD
:100200008FBFDF91CF9108953FB7F8948091E201BD
:100210009091E301A091E401B091E50126B5A89B7E
:1002200005C02F3F19F00196A11DB11D3FBFBA2F88
:10023000A92F982F8827820F911DA11DB11DBC01E8
:10024000CD0142E0660F771F881F991F4A95D1F7AD
:1002500008958F929F92AF92BF92CF92DF92EF92CA
:10026000FF926B017C010E9404014B015C01C114EF
:10027000D104E104F104F1F00E940401DC01CB019E
:1002800088199909AA09BB09883E9340A105B105BF
:1002900070F321E0C21AD108E108F10888EE880E57
:1002A00083E0981EA11CB11CC114D104E104F10427
:1002B00019F7DDCFFF90EF90DF90CF90BF90AF9018
:1002C0009F908F900895089561E08DE00E947B00DB
:1002D00060ED77E080E090E00E94290160E08DE031
:1002E0000C947B008091DA0181110CC081E0809335
:1002F000DA018091DB019091DC0101969093DC01A1
:100300008093DB010895CF93C82F64EF71E080E004
:1003100090E00E94290161E08DE00E947B006AEF7D
:1003200070E080E090E00E94290160E08DE00E9492
:100330007B00C11115C06AEF70E080E090E00E9480
:10034000290161E08DE00E947B006AEF70E080E0AF
:1003500090E00E94290160E08DE0CF910C947B0039
:10036000CF9108952F923F924F925F926F927F921A
:100370008F929F92AF92BF92CF92DF92EF92FF92B5
:100380000F931F93CF93DF93CDB7DEB72F970FB6A1
:10039000F894DEBF0FBECDBF3C01B02E4901542EF4
:1003A000452E362E8A2D95E08902F0011124960102
:1003B000A701602F712FC4010E2F0E948706E22F24
:1003C000EF712A2C2E0E311002C08CE001C086E0A5
:1003D000281A27FC09C0332011F0539401C043941C
:1003E000E150F3EF2F0EF5CF8A2DAA0C990B9D87C4
:1003F0008C87DC0123E0AA0FBB1F2A95E1F7A658E2
:10040000BE4F2C91C22211963C911197D322129685
:100410004C911297E42213965C911397F52214964F
:100420006C911497B62215967C9115971723169602
:100430002C911697822217963C919322F0E0019618
:100440009F878E87FE17ACF58E859F858F0F911D38
:10045000F7FD9A956CE070E00E947106DC0193E074
:10046000AA0FBB1F9A95E1F7A65EBE4F9601A701A2
:100470006B2D712FC401AC901196BC901197129600
:10048000CC9012971396DC9013971496EC901497D7
:100490001596FC90159716960C91169717961C9129
:1004A0000E94A30669017A01B62E172F4C01FF5F47
:1004B000C9CF93EF29120CC0F301C082D182E2822E
:1004C000F382B4821583868297825086418694C0D7
:1004D0008C859D858E0F911DE7FD9A956CE070E0EF
:1004E0000E947106FC0185E08E9FD0018F9FB00DA8
:1004F00011249601A7016B2D712FC4010A2F0E94B0
:1005000087062F71213009F06AC081E0332019F08D
:10051000E63024F002C0E6300CF480E080FF5FC0DB
:10052000ABE0AE1B332081F085E0A89FD001112401
:100530009601A7016B2D712FC4010A2F0E94870617
:100540002F71520E53940FC095E0A99FD001112432
:100550009601A7016B2D712FC4010A2F0E948706F7
:100560002F71420E4394ABE0AE1B88E0A89FD001F0
:100570001124A658BE4F83E0EE0FFF1F8A95E1F7C6
:10058000E658FE4F7C918081782311966C911197EB
:100590008181682312965C91129782815823139669
:1005A0004C9113978381482314963C91149784812E
:1005B000382315962C9115978581282316969C91A2
:1005C0001697868198231796AC9187818A23C72234
:1005D000D622E522F422B322122389229822F301A3
:1005E000C082D182E282F382B482158386829782AE
:1005F0005086418661E036263286C3012F960FB6BB
:10060000F894DEBF0FBECDBFDF91CF911F910F9148
:10061000FF90EF90DF90CF90BF90AF909F908F9022
:100620007F906F905F904F903F902F9008952F9202
:100630003F924F925F926F927F928F929F92AF9272
:10064000BF92CF92DF92EF92FF920F931F93CF93BF
:10065000DF93CDB7DEB769970FB6F894DEBF0FBE54
:10066000CDBFFC014B01C2848081888FB181228083
:1006700093819F8BD480E580F6808781898FCC2001
:1006800059F0188D5B2E622C092F0F73712CB12C31
:10069000A12C412C312C16C020E030E040E05F89D5
:1006A000507C6D2D7E2D8F2D998D9F700EE10E94B7
:1006B0008706122F532E642E052F762EB72EA82EC6
:1006C000492EE8CF212F352D462D502F672D7B2D1C
:1006D0008A2D942DA0E00E94AC06B9F0812F8F7175
:1006E000380E212F352D462D502F672D7B2D8A2D2D
:1006F000942D05E00E948706122F532E642E052F9D
:10070000762EB72EA82E492EDDCF332009F467C0F0
:1007100034014F019FEF9F8B9CE9B92E312C2301AF
:10072000E1E04E1A5108F4018285811104C08BE08A
:10073000282E231801C0232CF22D85E0F802800119
:100740001124F401208131814281538164817581BA
:10075000868197810E9487062F71D1F1A22CC080DB
:10076000D180E280F3800481158126813781408524
:1007700051856285CE010C960E94B2018BE0FE018C
:100780003C96DE01119601900D928A95E1F7F401F5
:1007900022858B85821306C0B301CE0101960E948B
:1007A000170312C0161417043CF4B201CE010196CF
:1007B0000E941703919508C099858A85222311F01C
:1007C000981B02C0891B982FB91614F4B92E2F8AD2
:1007D0003394F6E03F12A7CF8F899B2D4CC08085C4
:1007E000B184CC20C1F08B19B82E5F89507C20E0F9
:1007F00030E040E06D2D7E2D8F2D998D9F700EE1A4
:100800000E948706F22FB32F142FE52FF62E072F05
:10081000D82EE92E09C0B81AF88D122DEF89EF7382
:10082000F12C00E0D12CE12CC12C2F2F3B2F412F9C
:100830005E2F6F2D702F8D2D9E2DA0E00E94AC0697
:10084000B9F08F2F8F71C80E2F2F3B2F412F5E2FA6
:100850006F2D702F8D2D9E2D05E00E948706F22FA3
:10086000B32F142FE52FF62E072FD82EE92EDDCF2C
:100870008FEF9B2D9C1969960FB6F894DEBF0FBEC3
:10088000CDBFDF91CF911F910F91FF90EF90DF903F
:10089000CF90BF90AF909F908F907F906F905F9020
:1008A0004F903F902F90089561E089E00E94C8002A
:1008B000EDEAF0E0E491E33019F150F4E130D1F0E9
:1008C000E230E1F584B5806284BD8AE788BD089591
:1008D000E73011F1E83049F1E43081F58091800092
:1008E0008062809380008AE790E090938B008093F1
:1008F0008A00089584B5806884BD8AE787BD08951D
:10090000809180008068809380008AE790E09093D7
:1009100089008093880008958091B000806880935A
:10092000B0008AE78093B30008958091B0008062A0
:100930008093B0008AE78093B400089560E089E076
:100940000C947B00CF93C82FC7FD14C00E945404A1
:1009500064EF71E080E090E00E94290160E089E0AE
:100960000E947B006AEF70E080E090E00E94290125
:10097000C150EACFCF9108951F920F920FB60F92F8
:1009800011242F933F938F939F93AF93BF938091A5
:10099000DE019091DF01A091E001B091E101309181
:1009A000DD0123E0230F2D3720F40196A11DB11D99
:1009B00005C026E8230F0296A11DB11D2093DD017D
:1009C0008093DE019093DF01A093E001B093E101F9
:1009D0008091E2019091E301A091E401B091E501E1
:1009E0000196A11DB11D8093E2019093E301A093B4
:1009F000E401B093E501BF91AF919F918F913F9139
:100A00002F910F900FBE0F901F9018951F920F926D
:100A10000FB60F9211242F933F934F935F936F93D1
:100A20007F938F939F93AF93BF93EF93FF93E09147
:100A30000201F09103010995FF91EF91BF91AF91F0
:100A40009F918F917F916F915F914F913F912F91E6
:100A50000F900FBE0F901F9018951F920F920FB618
:100A60000F9211242F933F934F935F936F937F9334
:100A70008F939F93AF93BF93EF93FF93E091000108
:100A8000F09101010995FF91EF91BF91AF919F9175
:100A90008F917F916F915F914F913F912F910F9027
:100AA0000FBE0F901F901895CF93DF93CDB7DEB791
:100AB00066970FB6F894DEBF0FBECDBF789484B5AD
:100AC000826084BD84B5816084BD85B5826085BD4A
:100AD00085B5816085BD80916E00816080936E00D8
:100AE00010928100809181008260809381008091CA
:100AF000810081608093810080918000816080937B
:100B000080008091B10084608093B1008091B0003A
:100B100081608093B00080917A00846080937A0035
:100B200080917A00826080937A0080917A0081605F
:100B300080937A0080917A00806880937A00109286
:100B4000C10061E089E00E94C80060E089E00E9485
:100B50007B0062E082E00E94C80082E791E090930F
:100B6000010180930001809169008C7F82608093F5
:100B70006900E89A61E08DE00E94C80060E08DE0C5
:100B80000E947B008BE0EFE0F1E0DE011196019026
:100B90000D928A95E1F76CED75E080E090E00E949F
:100BA00029010E94640163E070E0CE0101960E9479
:100BB00017030E94A20481E00E94830177247394AA
:100BC0008CE0682E90E0892E90E0992E8091DB01D8
:100BD0009091DC01181619060CF07CC008E010E0BA
:100BE0006CED75E080E090E00E9429011092DA013E
:100BF0000E94540466E970E080E090E00E942901C0
:100C000060E089E00E947B000150110949F76CED1A
:100C100075E080E090E00E9429012091DB01309195
:100C2000DC0180910E01273031050CF046C088238D
:100C300031F0A090DB01B090DC01AA9406C0809155
:100C4000DB019091DC01A62CA81AC0900401D09081
:100C50000501E0900601F090070100910801109154
:100C6000090120910A0130910B0140910C01509132
:100C70000D0160910E01CE010C960E94B2018BE035
:100C8000FE013C96A4E0B1E001900D928A95E1F757
:100C900080910E018823A1F06CED75E080E090E07A
:100CA0000E9429010E94640163E070E084E091E009
:100CB0000E9417030E94A20403C0872580930E019F
:100CC0001092DC011092DB011092DA0180910E018A
:100CD0000E9483018114910409F478CF0E940000DE
:100CE00075CF97FB072E16F4009407D077FD09D037
:100CF0000E94B80607FC05D03EF4909581959F4F61
:100D00000895709561957F4F089597FB10F816949C
:100D100000080F93083098F00850232F342F452FE8
:100D2000562F672F782F892F902DF4CF0594979504
:100D300087957795679557954795379527950A95A0
:100D4000AAF70F9108952A0D3B1D4C1D5D1D6E1DC8
:100D50007F1D801F911F08950024A7FD00942A176E
:100D60003005400550056005700580059005089523
:100D7000AA1BBB1B51E107C0AA1FBB1FA617B707C1
:100D800010F0A61BB70B881F991F5A95A9F78095DD
:0C0D90009095BC01CD010895F894FFCFB0
:100D9C006301630184104208218410020000018465
:100DAC001042082184100200000101000000000024
:100DBC000000200000000000000000040000000003
:100DCC000000008000000000000000001000000087
:100DDC0000000000000200000000000000400000C5
:100DEC0000000000000008000000000000000001EE
:100DFC0000000000000000200000000000000000C7
:100E0C0004000000000000008000E0FFFFFFFFFF77
:100E1C00FF0F1FFCFFFFFFFFFF0FFF83FFFFFFFF15
:100E2C00FF0FFF7FF0FFFFFFFF0FFFFF0FFEFFFF26
:100E3C00FF0FFFFFFFC1FFFFFF0FFFFFFF3FF8FF9B
:100E4C00FF0FFFFFFFFF07FFFF0FFFFFFFFFFFE09D
:100E5C00FF0FFFFFFFFFFF1FFC0FFFFFFFFFFFFF59
:0A0E6C00830FFFFFFFFFFFFF7F0071
:00000001FF
