:100000000C945C000C947A050C9453050C947900C4
:100010000C9479000C9479000C9479000C9479007C
:100020000C9479000C9479000C9479000C9479006C
:100030000C9479000C9479000C9479000C9479005C
:100040000C9409050C9479000C9479000C947900B7
:100050000C9479000C9479000C9479000C9479003C
:100060000C9479000C947900000000002400270013
:100070002A0000000000250028002B0004040404CE
:100080000404040402020202020203030303030342
:10009000010204081020408001020408102001021F
:1000A00004081020000000080002010000030407FB
:1000B000000000000000000011241FBECFEFD8E0B8
:1000C000DEBFCDBF11E0A0E0B1E0E8E7F1E102C0A2
:1000D00005900D92AC30B107D9F721E0ACE0B1E06A
:1000E00001C01D92A133B207E1F70E94A1050C9453
:1000F000BA080C94000090E0FC01EC55FF4F2491ED
:10010000FC01E057FF4F3491FC01E458FF4FE491AC
:10011000EE2309F43CC0222339F1233091F038F466
:100120002130A9F0223001F584B58F7D12C027302F
:1001300091F02830A1F02430B9F4809180008F7DB7
:1001400003C0809180008F77809380000DC084B5BC
:100150008F7784BD09C08091B0008F7703C08091F4
:10016000B0008F7D8093B000F0E0EE0FFF1FEE58DF
:10017000FF4FA591B4919FB7F894611104C08C9181
:100180003095382302C0EC913E2B3C939FBF0895DD
:10019000CF93DF9390E0FC01E057FF4F2491FC01E7
:1001A000E458FF4F8491882361F190E0880F991FF4
:1001B000FC01E859FF4FC591D491FC01EE58FF4F67
:1001C000A591B491611109C09FB7F89488812095D9
:1001D00082238883EC912E230BC0623061F49FB799
:1001E000F8948881322F309583238883EC912E2BCD
:1001F0002C939FBF06C08FB7F894E8812E2B2883DD
:100200008FBFDF91CF9108953FB7F8948091290176
:1002100090912A01A0912B01B0912C0126B5A89BA9
:1002200005C02F3F19F00196A11DB11D3FBFBA2F88
:10023000A92F982F8827820F911DA11DB11DBC01E8
:10024000CD0142E0660F771F881F991F4A95D1F7AD
:1002500008958F929F92AF92BF92CF92DF92EF92CA
:10026000FF926B017C010E9404014B015C01C114EF
:10027000D104E104F104F1F00E940401DC01CB019E
:1002800088199909AA09BB09883E9340A105B105BF
:1002900070F321E0C21AD108E108F10888EE880E57
:1002A00083E0981EA11CB11CC114D104E104F10427
:1002B00019F7DDCFFF90EF90DF90CF90BF90AF9018
:1002C0009F908F90089508950F931F93FC0185E0F0
:1002D0006802800111242FE130E040E050E060E04E
:1002E00070E080E090E00E943907209530954095BD
:1002F00050956095709580959095A0812A232083D4
:10030000218132233183228142234283238152235C
:10031000538324816223648325817223758326811C
:10032000822386838781982397831F910F91089555
:1003300061E08DE00E947B0060ED77E080E090E07E
:100340000E94290160E08DE00C947B0080910E01F9
:1003500081110CC081E080930E0180910F0190917A
:10036000100101969093100180930F0108953F9220
:100370004F925F926F927F928F929F92AF92BF92B5
:10038000CF92DF92EF92FF920F931F93CF93DF9361
:10039000EC01142F8BE0FB01DE0101900D928A9598
:1003A000E1F7842E042E000C990835E04302F00199
:1003B0001124288139814A815B816C817D818E8104
:1003C0009F810E2F0E9454072F71722E612E620E94
:1003D0002A85222311F086E001C08CE0681A9885F6
:1003E000898567FC09C0222311F09F5F01C08F5FE0
:1003F0007A9433EF630EF5CF98878987612FCE010A
:100400000E946401A880B980CA80DB80EC80FD80F6
:100410004E801F8155245394ECE0F0E085E0382EA7
:10042000751414F1C401850D911D57FC9A95BF01F7
:100430000E942507389ED001399EB00D112421E07D
:1004400030E040E050E060E070E080E090E00A2FB3
:100450000E943907042D0E94700759016A017B012F
:10046000482E192F5394DCCFA882B982CA82DB822E
:10047000EC82FD824E821F8383EF681609F460C010
:10048000C401870D911D77FC9A956CE070E00E9485
:1004900025074C0185E0889DF001899DF00D112410
:1004A0009501A601B701842D912F0E2F0E945407AC
:1004B0002F71213051F58A85882321F035E03815D8
:1004C00020F105C08AEF880D863020F11EC0EBE0D8
:1004D000E81985E0E89FF00111249501A601B70114
:1004E000842D912F0E2F0E9454072F7130E02F5F23
:1004F0003F4F8885280F2887682DCE010E94640110
:100500006BE06819CE010E9464019A8581E0892719
:100510008A8716C0EBE0E81935E0E39FF00111246B
:100520009501A601B701842D912F0E2F0E9454072B
:100530002F7130E02F5F3F4F8985280F2987DCCF4F
:10054000CE01DF91CF911F910F91FF90EF90DF903F
:10055000CF90BF90AF909F908F907F906F905F9063
:100560004F903F9008950F931F93FC01828588233D
:1005700019F0663028F015C08AEF860F863088F4AF
:1005800085E06802800111242081318142815381FC
:1005900064817581868197810E9454072F7181E063
:1005A00009F480E01F910F910895EF92FF920F934D
:1005B0001F93CF93DF93FC01662359F0B081118123
:1005C000D281E381EF73C0E0F0E0F12C00E0E12C98
:1005D00014C020813181428153816481758186817B
:1005E00097810EE10E945407B22F132FD42FE52FCD
:1005F000C62FF72FF82E092FEACF2B2F312F4D2F93
:100600005E2F6C2F7F2F8F2D902FA0E00E947907F7
:1006100081F08B2F8F71E80E8F2D05E00E9454071B
:10062000B22F132FD42FE52FC62FF72FF82E092F17
:10063000E4CF8E2DDF91CF911F910F91FF90EF901E
:1006400008957F928F929F92AF92BF92CF92DF9246
:10065000EF92FF920F931F93CF93DF93CDB7DEB747
:10066000A1970FB6F894DEBF0FBECDBF5C017B0132
:100670006A018BE0FB01DE01579601900D928A958D
:10068000E1F7FB016285C7010E94D502811141C0DB
:10069000E12CF12C10E089A1811112C0163044F533
:1006A0002F89388D498D5A8D6B8D7C8D8D8D9E8DCA
:1006B0000E2D0E9454072F718F8D280F2F8F13C07E
:1006C0008AEF810F8630A0F42F89388D498D5A8D9D
:1006D0006B8D7C8D8D8D9E8D0E2D0E9454072F71FC
:1006E00088A1280F28A3612FCE0147960E9464019C
:1006F0001F5FF5E0EF0EF11C1C3069F629A188A1FF
:100700009F8D222311F0981B02C0891B982F8FEF19
:1007100051C000E077247A9411E8460181E0881AFC
:100720009108602FC7010E94B3028823E9F1402F8E
:10073000B701CE010C960E94B7018BE0FE013C96FA
:10074000DE01119601900D928A95E1F78BE0FE0192
:100750003196DE01579601900D928A95E1F729A115
:10076000F7018285281308C0A601BE01695E7F4F8C
:10077000C5010E94210314C01C141D0444F4A401EB
:10078000BE01695E7F4FC5010E94210308C098A188
:100790008F8D222319F0891B982F01C0981B9195EA
:1007A000191714F4192F702E0F5F0C3009F0B9CF00
:1007B000872D912FA1960FB6F894DEBF0FBECDBF47
:1007C000DF91CF911F910F91FF90EF90DF90CF902D
:1007D000BF90AF909F908F907F9008950F931F933D
:1007E000CF93DF93EC011A85612F0E94D502082F69
:1007F00061E06127CE010E94D502081B802FDF91A6
:10080000CF911F910F9108957F928F929F92AF92F7
:10081000BF92CF92DF92EF92FF920F931F93CF93ED
:10082000DF93CDB7DEB7A1970FB6F894DEBF0FBE4A
:10083000CDBF5C018B01CB010E94EE03C09004018F
:10084000D090050187FF64C08BE0F801DE01579668
:1008500001900D928A95E1F7F8016285C8010E9426
:10086000D502811106C0CE0147960E94EE038FEF9C
:1008700054C0E12CFF24FA9481E8782E4601F1E07F
:100880008F1A91086E2DC8010E94B3028823D1F1FE
:100890004E2DB801CE0101960E94B7018BE0FE01FA
:1008A0003196DE011C9601900D928A95E1F78BE05E
:1008B000FE013C96DE01579601900D928A95E1F774
:1008C00099A1F8018285981308C0A601BE01695E4E
:1008D0007F4FC5010E94210311C01C141D0444F464
:1008E000A401BE01695E7F4FC5010E94210305C0BE
:1008F000CE0147960E94EE03982F9195791614F435
:10090000792EFE2CE394FCE0EF12BCCF8F2D05C0B6
:10091000A601B801C5010E942103A1960FB6F89463
:10092000DEBF0FBECDBFDF91CF911F910F91FF9022
:10093000EF90DF90CF90BF90AF909F908F907F907F
:10094000089561E089E00E94C800EDEAF0E0E491DA
:10095000E33019F150F4E130D1F0E230E1F584B543
:10096000806284BD82E788BD0895E73011F1E830E8
:1009700049F1E43081F580918000806280938000AD
:1009800082E790E090938B0080938A00089584B56D
:10099000806884BD82E787BD08958091800080686B
:1009A0008093800082E790E0909389008093880094
:1009B00008958091B00080688093B00082E78093B2
:1009C000B30008958091B00080628093B00082E708
:1009D0008093B400089560E089E00C947B00CF938D
:1009E000C82FC7FD14C00E94A10464EF71E080E02D
:1009F00090E00E94290160E089E00E947B006AEF9C
:100A000070E080E090E00E942901C150EACFCF91D0
:100A100008951F920F920FB60F9211242F933F93B8
:100A20008F939F93AF93BF9380912501909126015F
:100A3000A0912701B09128013091240123E0230FD8
:100A40002D3720F40196A11DB11D05C026E8230F06
:100A50000296A11DB11D209324018093250190933E
:100A60002601A0932701B09328018091290190913C
:100A70002A01A0912B01B0912C010196A11DB11D5D
:100A80008093290190932A01A0932B01B0932C010C
:100A9000BF91AF919F918F913F912F910F900FBE7A
:100AA0000F901F9018951F920F920FB60F9211245E
:100AB0002F933F934F935F936F937F938F939F9366
:100AC000AF93BF93EF93FF93E0910201F091030185
:100AD0000995FF91EF91BF91AF919F918F917F9178
:100AE0006F915F914F913F912F910F900FBE0F909B
:100AF0001F9018951F920F920FB60F9211242F93EB
:100B00003F934F935F936F937F938F939F93AF9395
:100B1000BF93EF93FF93E0910001F09101010995DC
:100B2000FF91EF91BF91AF919F918F917F916F91C5
:100B30005F914F913F912F910F900FBE0F901F909B
:100B40001895CF93DF93CDB7DEB766970FB6F894BD
:100B5000DEBF0FBECDBF789484B5826084BD84B5FE
:100B6000816084BD85B5826085BD85B5816085BDA8
:100B700080916E00816080936E0010928100809160
:100B800081008260809381008091810081608093E8
:100B90008100809180008160809380008091B1000D
:100BA00084608093B1008091B00081608093B00038
:100BB00080917A00846080937A0080917A008260CC
:100BC00080937A0080917A00816080937A0080918E
:100BD0007A00806880937A001092C10061E089E019
:100BE0000E94C80060E089E00E947B0062E082E031
:100BF0000E94C80086EA91E0909301018093000171
:100C0000809169008C7F826080936900E89A61E03E
:100C10008DE00E94C80060E08DE00E947B0094E8B7
:100C2000998380E18A8322E42B8328E02C8321E2CC
:100C30002D839E838F8382E0888719861A8681E0C0
:100C40008B870E94980184E090E090930501809347
:100C5000040180910C0190910D01892B41F481E0F8
:100C600090E00E94990790930D0180930C01BE01C2
:100C70006F5F7F4F80910C0190910D010E940404E1
:100C80000E94EF0448E0842E50E0C52E50E0D52E9F
:100C900004E860E1962E72E4772EE4E0AE2EB12CEB
:100CA00091E2692E22E0522E11E03CE0432E809129
:100CB0001C01811118C000931101909212017092D1
:100CC0001301809214016092150100931601909215
:100CD0001701509218011092190110921A011093E5
:100CE0001B0110931C0180910F01909110011816A7
:100CF00019060CF0A3C087E0E82EF12C66ED76E033
:100D000080E090E00E9429010E94A10466E970E061
:100D100080E090E00E94290160E089E00E947B0071
:100D200010920E0181E0E81AF10841F766ED76E0D5
:100D300080E090E00E942901E0900F01F090100106
:100D40001E141F04C4F46AEF70E080E090E00E947B
:100D5000290161E08DE00E947B006AEF70E080E095
:100D600090E00E94290160E08DE00E947B0081E01C
:100D7000E81AF108E5CF20910F0130911001809120
:100D80001B01273031050CF050C0882341F0409101
:100D90000F0150911001FF24FA94F40E06C08091C7
:100DA0000F0190911001F42CF81A6F2D81E191E060
:100DB0000E94B302882381F04F2D61E171E0CE01E2
:100DC0000C960E94B7018BE0FE013C96A1E1B1E0D8
:100DD00001900D928A95E1F780911B01882341F1E2
:100DE0006CED75E080E090E00E9429010E9498017E
:100DF000B0920501A092040180910C0190910D0127
:100E0000892B41F481E090E00E94990790930D01B5
:100E100080930C0161E171E080910C0190910D01D2
:100E20000E9404040E94EF0403C0812780931B01E9
:100E30001092100110920F0110920E01C114D104F2
:100E400009F435CF0E9400002BCF97FB072E16F434
:100E5000009407D077FD09D00E94850707FC05D0D4
:100E60003EF4909581959F4F0895709561957F4FC1
:100E700008950F93083090F0982F872F762F652FC5
:100E8000542F432F322F22270850F4CF220F331F25
:100E9000441F551F661F771F881F991F0A95B2F7B9
:100EA0000F91089597FB10F8169400080F930830DF
:100EB00098F00850232F342F452F562F672F782F67
:100EC000892F902DF4CF0594979587957795679501
:100ED00057954795379527950A95AAF70F91089545
:100EE0002A0D3B1D4C1D5D1D6E1D7F1D801F911F1A
:100EF00008950024A7FD00942A17300540055005E9
:100F000060057005800590050895AA1BBB1B51E183
:100F100007C0AA1FBB1FA617B70710F0A61BB70B69
:100F2000881F991F5A95A9F780959095BC01CD010E
:100F300008950F931F93CF93DF938230910510F4A0
:100F400082E090E0E0912F01F091300120E030E06C
:100F5000A0E0B0E0309719F1408151810281138106
:100F600048175907C8F08417950769F4109731F0AE
:100F700012960C93129713961C9327C000932F017F
:100F80001093300122C02115310519F04217530783
:100F900018F49A01BD01EF01DF01F801DBCF211543
:100FA0003105F9F0281B390B2430310580F48A8192
:100FB0009B816115710521F0FB019383828304C03D
:100FC0009093300180932F01FE01329644C0FE01C0
:100FD000E20FF31F819391932250310939832883C3
:100FE0003AC020912D0130912E01232B41F4209104
:100FF00008013091090130932E0120932D01209199
:101000000601309107012115310541F42DB73EB796
:1010100040910A0150910B01241B350BE0912D01E9
:10102000F0912E01E217F307A0F42E1B3F0B2817B7
:10103000390778F0AC014E5F5F4F2417350748F051
:101040004E0F5F1F50932E0140932D01819391937A
:1010500002C0E0E0F0E0CF01DF91CF911F910F914E
:101060000895CF93DF93009709F481C0FC01329774
:1010700013821282A0912F01B0913001109781F458
:1010800020813181820F931F20912D0130912E01FB
:101090002817390751F5F0932E01E0932D0167C011
:1010A000ED0120E030E0CE17DF0740F44A815B819C
:1010B0009E0141155105F1F0EA01F5CFD383C283BA
:1010C00040815181840F951FC817D90759F4888131
:1010D0009981840F951F0296918380838A819B81D9
:1010E000938382832115310529F4F0933001E09335
:1010F0002F013DC0E901FB83EA8349915991C40F57
:10110000D51FEC17FD0761F480819181840F951F35
:101110000296E90199838883828193819B838A83E4
:10112000E0E0F0E012968D919C911397009719F0F2
:10113000FD01DC01F7CF8D919C9111979D012E5FF0
:101140003F4F820F931F20912D0130912E012817C0
:10115000390769F4309729F41092300110922F0169
:1011600002C013821282B0932E01A0932D01DF9151
:08117000CF910895F894FFCF20
:0C117800630163010100000031018000F0
:00000001FF
